{
  "_format": "hh-sol-artifact-1",
  "contractName": "TodoList",
  "sourceName": "contracts/TodoList.sol",
  "abi": [
    {
      "anonymous": false,
      "inputs": [
        {
          "indexed": true,
          "internalType": "uint256",
          "name": "id",
          "type": "uint256"
        },
        {
          "indexed": true,
          "internalType": "string",
          "name": "text",
          "type": "string"
        },
        {
          "indexed": true,
          "internalType": "bool",
          "name": "completed",
          "type": "bool"
        }
      ],
      "name": "AddedTodo",
      "type": "event"
    },
    {
      "anonymous": false,
      "inputs": [
        {
          "indexed": true,
          "internalType": "uint256",
          "name": "id",
          "type": "uint256"
        },
        {
          "indexed": true,
          "internalType": "string",
          "name": "text",
          "type": "string"
        },
        {
          "indexed": true,
          "internalType": "bool",
          "name": "completed",
          "type": "bool"
        }
      ],
      "name": "RemovedTodo",
      "type": "event"
    },
    {
      "anonymous": false,
      "inputs": [
        {
          "indexed": true,
          "internalType": "uint256",
          "name": "id",
          "type": "uint256"
        },
        {
          "indexed": true,
          "internalType": "string",
          "name": "text",
          "type": "string"
        },
        {
          "indexed": true,
          "internalType": "bool",
          "name": "completed",
          "type": "bool"
        }
      ],
      "name": "ToggledTodo",
      "type": "event"
    },
    {
      "inputs": [
        {
          "internalType": "string",
          "name": "_text",
          "type": "string"
        }
      ],
      "name": "addTodo",
      "outputs": [],
      "stateMutability": "nonpayable",
      "type": "function"
    },
    {
      "inputs": [],
      "name": "getTodoListByOwner",
      "outputs": [
        {
          "components": [
            {
              "internalType": "uint256",
              "name": "id",
              "type": "uint256"
            },
            {
              "internalType": "string",
              "name": "text",
              "type": "string"
            },
            {
              "internalType": "bool",
              "name": "completed",
              "type": "bool"
            }
          ],
          "internalType": "struct TodoList.Todo[]",
          "name": "",
          "type": "tuple[]"
        }
      ],
      "stateMutability": "view",
      "type": "function"
    },
    {
      "inputs": [
        {
          "internalType": "uint256",
          "name": "_id",
          "type": "uint256"
        }
      ],
      "name": "removeTodo",
      "outputs": [],
      "stateMutability": "nonpayable",
      "type": "function"
    },
    {
      "inputs": [
        {
          "internalType": "uint256",
          "name": "",
          "type": "uint256"
        }
      ],
      "name": "todos",
      "outputs": [
        {
          "internalType": "uint256",
          "name": "id",
          "type": "uint256"
        },
        {
          "internalType": "string",
          "name": "text",
          "type": "string"
        },
        {
          "internalType": "bool",
          "name": "completed",
          "type": "bool"
        }
      ],
      "stateMutability": "view",
      "type": "function"
    },
    {
      "inputs": [
        {
          "internalType": "uint256",
          "name": "_id",
          "type": "uint256"
        }
      ],
      "name": "toggleCompleted",
      "outputs": [],
      "stateMutability": "nonpayable",
      "type": "function"
    }
  ],
  "bytecode": "0x608060405234801561001057600080fd5b506119da806100206000396000f3fe608060405234801561001057600080fd5b50600436106100575760003560e01c8063197f6ddf1461005c5780633be3d7031461007a578063455f50241461009657806395ffebf5146100b2578063bc8bc2b4146100ce575b600080fd5b610064610100565b60405161007191906115da565b60405180910390f35b610094600480360381019061008f919061128e565b61045d565b005b6100b060048036038101906100ab919061128e565b610951565b005b6100cc60048036038101906100c79190611249565b610bcb565b005b6100e860048036038101906100e3919061128e565b610dae565b6040516100f7939291906116d3565b60405180910390f35b60606000600160003373ffffffffffffffffffffffffffffffffffffffff1673ffffffffffffffffffffffffffffffffffffffff1681526020019081526020016000209050600081805490501161018c576040517f08c379a0000000000000000000000000000000000000000000000000000000008152600401610183906116b3565b60405180910390fd5b6101ca6040518060400160405280601781526020017f4865726520697320796f757220546f646f204c6973743a000000000000000000815250610e7d565b60005b8180549050811015610348576103356040518060400160405280600981526020017f546f646f202325643a000000000000000000000000000000000000000000000081525083838154811061024b577f4e487b7100000000000000000000000000000000000000000000000000000000600052603260045260246000fd5b906000526020600020906003020160000154848481548110610296577f4e487b7100000000000000000000000000000000000000000000000000000000600052603260045260246000fd5b906000526020600020906003020160010180546102b290611879565b80601f01602080910402602001604051908101604052809291908181526020018280546102de90611879565b801561032b5780601f106103005761010080835404028352916020019161032b565b820191906000526020600020905b81548152906001019060200180831161030e57829003601f168201915b5050505050610f16565b8080610340906118ab565b9150506101cd565b5080805480602002602001604051908101604052809291908181526020016000905b828210156104535783829060005260206000209060030201604051806060016040529081600082015481526020016001820180546103a790611879565b80601f01602080910402602001604051908101604052809291908181526020018280546103d390611879565b80156104205780601f106103f557610100808354040283529160200191610420565b820191906000526020600020905b81548152906001019060200180831161040357829003601f168201915b505050505081526020016002820160009054906101000a900460ff1615151515815250508152602001906001019061036a565b5050505091505090565b806000600160003373ffffffffffffffffffffffffffffffffffffffff1673ffffffffffffffffffffffffffffffffffffffff1681526020019081526020016000209050600080600090505b828054905081101561051f578281815481106104ee577f4e487b7100000000000000000000000000000000000000000000000000000000600052603260045260246000fd5b90600052602060002090600302016000015484141561050c57600191505b8080610517906118ab565b9150506104a9565b5080610560576040517f08c379a000000000000000000000000000000000000000000000000000000000815260040161055790611693565b60405180910390fd5b6000600160003373ffffffffffffffffffffffffffffffffffffffff1673ffffffffffffffffffffffffffffffffffffffff16815260200190815260200160002090506060600080600090505b8380549050811015610885578381815481106105f2577f4e487b7100000000000000000000000000000000000000000000000000000000600052603260045260246000fd5b90600052602060002090600302016000015488141561087257836001858054905061061d91906117ed565b81548110610654577f4e487b7100000000000000000000000000000000000000000000000000000000600052603260045260246000fd5b906000526020600020906003020184828154811061069b577f4e487b7100000000000000000000000000000000000000000000000000000000600052603260045260246000fd5b90600052602060002090600302016000820154816000015560018201816001019080546106c790611879565b6106d292919061107a565b506002820160009054906101000a900460ff168160020160006101000a81548160ff02191690831515021790555090505083818154811061073c577f4e487b7100000000000000000000000000000000000000000000000000000000600052603260045260246000fd5b9060005260206000209060030201600101805461075890611879565b80601f016020809104026020016040519081016040528092919081815260200182805461078490611879565b80156107d15780601f106107a6576101008083540402835291602001916107d1565b820191906000526020600020905b8154815290600101906020018083116107b457829003601f168201915b50505050509250838181548110610811577f4e487b7100000000000000000000000000000000000000000000000000000000600052603260045260246000fd5b906000526020600020906003020160020160009054906101000a900460ff1691506108716040518060400160405280601a81526020017f546f646f2023256420686173206265656e2072656d6f7665642100000000000081525089610fb5565b5b808061087d906118ab565b9150506105ad565b50828054806108bd577f4e487b7100000000000000000000000000000000000000000000000000000000600052603160045260246000fd5b60019003818190600052602060002090600302016000808201600090556001820160006108ea9190611107565b6002820160006101000a81549060ff0219169055505090558015158260405161091391906115ac565b6040518091039020887f8d718601af9dac7165b13838da8f84fa090429a5e36bd89fa4ae33b0055874d460405160405180910390a450505050505050565b600160003373ffffffffffffffffffffffffffffffffffffffff1673ffffffffffffffffffffffffffffffffffffffff168152602001908152602001600020805490508111156109d6576040517f08c379a00000000000000000000000000000000000000000000000000000000081526004016109cd90611693565b60405180910390fd5b6000600160003373ffffffffffffffffffffffffffffffffffffffff1673ffffffffffffffffffffffffffffffffffffffff168152602001908152602001600020600183610a2491906117ed565b81548110610a5b577f4e487b7100000000000000000000000000000000000000000000000000000000600052603260045260246000fd5b906000526020600020906003020190508060020160009054906101000a900460ff16158160020160006101000a81548160ff0219169083151502179055508060020160009054906101000a900460ff16151581600101604051610abe91906115c3565b604051809103902082600001547f73bf0913ff882d145fd6d683dbf9f273390f9c22ea348a0999024dc2acc3a2e560405160405180910390a4610bc76040518060400160405280601881526020017f596f7520746f67676c656420546f646f202325643a20257300000000000000008152508260000154836001018054610b4490611879565b80601f0160208091040260200160405190810160405280929190818152602001828054610b7090611879565b8015610bbd5780601f10610b9257610100808354040283529160200191610bbd565b820191906000526020600020905b815481529060010190602001808311610ba057829003601f168201915b5050505050610f16565b5050565b6000600160003373ffffffffffffffffffffffffffffffffffffffff1673ffffffffffffffffffffffffffffffffffffffff1681526020019081526020016000209050600060018280549050610c219190611797565b905081604051806060016040528083815260200186868080601f016020809104026020016040519081016040528093929190818152602001838380828437600081840152601f19601f820116905080830192505050505050508152602001600015158152509080600181540180825580915050600190039060005260206000209060030201600090919091909150600082015181600001556020820151816001019080519060200190610cd5929190611147565b5060408201518160020160006101000a81548160ff0219169083151502179055505050600015158484604051610d0c929190611593565b6040518091039020827f4191fe227fde19ee15d007495b2db4f62ae2b16922e2fc1a9950625641138da860405160405180910390a4610da86040518060600160405280602a815260200161197b602a91398286868080601f016020809104026020016040519081016040528093929190818152602001838380828437600081840152601f19601f82011690508083019250505050505050610f16565b50505050565b60008181548110610dbe57600080fd5b9060005260206000209060030201600091509050806000015490806001018054610de790611879565b80601f0160208091040260200160405190810160405280929190818152602001828054610e1390611879565b8015610e605780601f10610e3557610100808354040283529160200191610e60565b820191906000526020600020905b815481529060010190602001808311610e4357829003601f168201915b5050505050908060020160009054906101000a900460ff16905083565b610f1381604051602401610e9191906115fc565b6040516020818303038152906040527f41304fac000000000000000000000000000000000000000000000000000000007bffffffffffffffffffffffffffffffffffffffffffffffffffffffff19166020820180517bffffffffffffffffffffffffffffffffffffffffffffffffffffffff8381831617835250505050611051565b50565b610fb0838383604051602401610f2e9392919061164e565b6040516020818303038152906040527fa3f5c739000000000000000000000000000000000000000000000000000000007bffffffffffffffffffffffffffffffffffffffffffffffffffffffff19166020820180517bffffffffffffffffffffffffffffffffffffffffffffffffffffffff8381831617835250505050611051565b505050565b61104d8282604051602401610fcb92919061161e565b6040516020818303038152906040527f9710a9d0000000000000000000000000000000000000000000000000000000007bffffffffffffffffffffffffffffffffffffffffffffffffffffffff19166020820180517bffffffffffffffffffffffffffffffffffffffffffffffffffffffff8381831617835250505050611051565b5050565b60008151905060006a636f6e736f6c652e6c6f679050602083016000808483855afa5050505050565b82805461108690611879565b90600052602060002090601f0160209004810192826110a857600085556110f6565b82601f106110b957805485556110f6565b828001600101855582156110f657600052602060002091601f016020900482015b828111156110f55782548255916001019190600101906110da565b5b50905061110391906111cd565b5090565b50805461111390611879565b6000825580601f106111255750611144565b601f01602090049060005260206000209081019061114391906111cd565b5b50565b82805461115390611879565b90600052602060002090601f01602090048101928261117557600085556111bc565b82601f1061118e57805160ff19168380011785556111bc565b828001600101855582156111bc579182015b828111156111bb5782518255916020019190600101906111a0565b5b5090506111c991906111cd565b5090565b5b808211156111e65760008160009055506001016111ce565b5090565b60008083601f8401126111fc57600080fd5b8235905067ffffffffffffffff81111561121557600080fd5b60208301915083600182028301111561122d57600080fd5b9250929050565b60008135905061124381611963565b92915050565b6000806020838503121561125c57600080fd5b600083013567ffffffffffffffff81111561127657600080fd5b611282858286016111ea565b92509250509250929050565b6000602082840312156112a057600080fd5b60006112ae84828501611234565b91505092915050565b60006112c38383611525565b905092915050565b60006112d682611736565b6112e08185611759565b9350836020820285016112f285611711565b8060005b8581101561132e578484038952815161130f85826112b7565b945061131a8361174c565b925060208a019950506001810190506112f6565b50829750879550505050505092915050565b61134981611821565b82525050565b61135881611821565b82525050565b600061136a838561178c565b9350611377838584611837565b82840190509392505050565b600061138e82611741565b611398818561176a565b93506113a8818560208601611846565b6113b181611952565b840191505092915050565b60006113c782611741565b6113d1818561177b565b93506113e1818560208601611846565b6113ea81611952565b840191505092915050565b600061140082611741565b61140a818561178c565b935061141a818560208601611846565b80840191505092915050565b6000815461143381611879565b61143d818661178c565b9450600182166000811461145857600181146114695761149c565b60ff1983168652818601935061149c565b61147285611721565b60005b8381101561149457815481890152600182019150602081019050611475565b838801955050505b50505092915050565b60006114b260148361177b565b91507f546f646f20646f6573206e6f74206578697374210000000000000000000000006000830152602082019050919050565b60006114f260098361177b565b91507f4e6f20746f646f732100000000000000000000000000000000000000000000006000830152602082019050919050565b600060608301600083015161153d6000860182611575565b50602083015184820360208601526115558282611383565b915050604083015161156a6040860182611340565b508091505092915050565b61157e8161182d565b82525050565b61158d8161182d565b82525050565b60006115a082848661135e565b91508190509392505050565b60006115b882846113f5565b915081905092915050565b60006115cf8284611426565b915081905092915050565b600060208201905081810360008301526115f481846112cb565b905092915050565b6000602082019050818103600083015261161681846113bc565b905092915050565b6000604082019050818103600083015261163881856113bc565b90506116476020830184611584565b9392505050565b6000606082019050818103600083015261166881866113bc565b90506116776020830185611584565b818103604083015261168981846113bc565b9050949350505050565b600060208201905081810360008301526116ac816114a5565b9050919050565b600060208201905081810360008301526116cc816114e5565b9050919050565b60006060820190506116e86000830186611584565b81810360208301526116fa81856113bc565b9050611709604083018461134f565b949350505050565b6000819050602082019050919050565b60008190508160005260206000209050919050565b600081519050919050565b600081519050919050565b6000602082019050919050565b600082825260208201905092915050565b600082825260208201905092915050565b600082825260208201905092915050565b600081905092915050565b60006117a28261182d565b91506117ad8361182d565b9250827fffffffffffffffffffffffffffffffffffffffffffffffffffffffffffffffff038211156117e2576117e16118f4565b5b828201905092915050565b60006117f88261182d565b91506118038361182d565b925082821015611816576118156118f4565b5b828203905092915050565b60008115159050919050565b6000819050919050565b82818337600083830152505050565b60005b83811015611864578082015181840152602081019050611849565b83811115611873576000848401525b50505050565b6000600282049050600182168061189157607f821691505b602082108114156118a5576118a4611923565b5b50919050565b60006118b68261182d565b91507fffffffffffffffffffffffffffffffffffffffffffffffffffffffffffffffff8214156118e9576118e86118f4565b5b600182019050919050565b7f4e487b7100000000000000000000000000000000000000000000000000000000600052601160045260246000fd5b7f4e487b7100000000000000000000000000000000000000000000000000000000600052602260045260246000fd5b6000601f19601f8301169050919050565b61196c8161182d565b811461197757600080fd5b5056fe596f75206372656174656420546f646f20776974682049443a2025642c20616e6420746578743a202573a26469706673582212202d6d9235512fad1bc2753a4f3076b20bec938ae5c47ced871ee29481ee1913ed64736f6c63430008000033",
  "linkReferences": {},
  "deployedLinkReferences": {}
}